:020000040000FA
:10000000902D0010B1010000B9010000BB010000FB
:10001000BD010000BF010000C101000000000000A0
:100020000000000000000000000000006903000064
:10003000C501000000000000F103000041040000C1
:10004000CB010000CB010000CB010000CB01000080
:10005000CB010000CB010000CB010000CB01000070
:10006000CB010000CB010000CB010000CB01000060
:10007000CB010000CB010000CB010000CB01000050
:10008000CB010000CB010000CB010000CB01000040
:10009000CB010000CB010000CB010000CB01000030
:1000A000CB010000CB010000CB010000CB01000020
:1000B000CB010000CB010000CB010000CB01000010
:1000C000CB010000CB010000CB01000000F002F8E2
:1000D00000F05EF80AA090E8000C82448344AAF184
:1000E0000107DA4501D100F053F8AFF2090EBAE882
:1000F0000F0013F0010F18BFFB1A43F0010318475C
:100100006C1B00008C1B000010F8013B0A4413F02C
:10011000030408BF10F8014B1D1108BF10F8015B64
:10012000641E05D010F8016B641E01F8016BF9D153
:10013000002D15D010F8014B03F00C030C2BA1EB94
:1001400004040ABF10F8013BA4EB8314A4EB0324BE
:1001500005F1010314F8016B5B1E01F8016BF9D581
:10016000914238BF10F8013BD1D3704700230024DF
:1001700000250026103A28BF78C1FBD8520728BFB7
:1001800030C148BF0B6070471FB51FBD10B510BD13
:1001900000F079F81146FFF7F7FF00F0A0FB00F040
:1001A00097F803B4FFF7F2FF03BC00F097F80000E4
:1001B0000948804709480047FEE7FEE7FEE7FEE7FB
:1001C000FEE7FEE7FEE7FEE7FEE7FEE70448054937
:1001D000034A054B704700005B050000CD0000009E
:1001E000902B0010902D0010902B0010FEE7704710
:1001F000FEE710B501F010FD30B1194900EB4000E9
:1002000001EB4010603810BD164810BD164A10B5FD
:1002100011680346082900D3FEE7144800EB0110DB
:10022000491C1860116001F04FF9012010BD10B594
:10023000044601F0F1FC002805D04FF6FF71DFF80D
:1002400030C0206800DF10BD10B5044601F0E4FCAA
:10025000002803D0DFF81CC0206800DF10BD0000BC
:1002600098270010302B001008000010382A0010CA
:10027000BD150000D914000000487047302B001055
:100280007047704770477546FFF7F6FFAE460500AA
:100290006946534620F00700854618B020B5FFF7A1
:1002A00095FFBDE820404FF000064FF000074FF0EB
:1002B00000084FF0000B21F00701AC46ACE8C00984
:1002C000ACE8C009ACE8C009ACE8C0098D4670478D
:1002D0000446AFF300802046FFF763FF0149182072
:1002E000ABBEFEE7260002007047000000000000E1
:1002F0007047032100F0FABE07000010FFFFFFFF68
:1003000080F309887047EFF309807047684680F3EF
:10031000098804480078C00714BF0220032080F336
:1003200014887047FA020000DFF818C0EFF3058365
:100330001B0618BF6047EFF31483DB0708BF604755
:1003400000DF7047D1100000DFF818C0EFF305831D
:100350001B0618BF6047EFF31483DB0708BF604735
:1003600000DF70470D130000EFF30980816911F879
:10037000021C39BB90E80F10E047EFF3098C194BD2
:1003800093E80600914218D059B10CB44FF0010324
:1003900081F826302CE9F00FC1F82CC001F02AFAC0
:1003A0000CBC1A60D2F82CC0BCE8F00F92F82630D2
:1003B0008CF309881BB192F82500CCF800006FF08F
:1003C000020E704710B5084A1268914209D8074CCE
:1003D00054F8214090E80F10A047EFF3098C8CE807
:1003E0000F0010BD28150010EC020000EC02000008
:1003F00001F018F9114B93E8060091421BD00CB4A0
:100400004FF0000381F82630EFF3098C2CE9F00F50
:10041000C1F82CC001F0EEF90CBC1A60D2F82CC067
:10042000BCE8F00F8CF3098892F826301BB192F8E3
:100430002530CCF800306FF0020E70472815001000
:1004400001F0AAFAD6E70000FFF752FF01F0A4FA84
:10045000D0E7000070B56C4DD5F888006B4C6FEAA2
:100460001060800713D0D5F80C0110F0030005D000
:1004700001285FD0022866D0032807D1D5F80401EF
:100480006349C0B2401CB1FBF0F0206070BDD5F8EC
:100490000C014FF0000110F0030005D001281AD024
:1004A00002282FD00328F1D155F8880FC0F3074256
:1004B0002868521CC0F30E005649401CA0FB0101E5
:1004C000002300F027FDEA6F0023D2B2521C00F097
:1004D00021FD206070BD55F8880FC0F307422868E1
:1004E000521CC0F30E004C49401CA0FB010100232C
:1004F00000F010FDEA6F0023D2B2521C00F00AFD9A
:10050000206070BD55F8880FC0F307422868521C60
:10051000C0F30E00401C090441EA1041000400230E
:1005200000F0F8FCEA6F0023D2B2521C00F0F2FC9B
:10053000206070BDD5F804013849C0B2401CB1FB41
:10054000F0F0206070BDD5F804014FF40041C0B256
:10055000401CB1FBF0F0206070BD70B52A4820212E
:10056000C0F8A011D0F8A011890603D5D0F8A011C9
:100570004906FBD503258030C0F884500024C0F81C
:100580002841C0F82C410126C0F88C600B21416045
:10059000AA23C3605522C2600660C360C26080386F
:1005A000D0F888104901FBD540F8805FC360C26075
:1005B0008038D0F88810C1F301610329F9D12321D3
:1005C000A0304160C360C2600660C360C260A038F2
:1005D000D0F8A8104905FBD540F8A05FC360C26001
:1005E000A038D0F8A810C1F301210329F9D10C4992
:1005F000C0F8C410C0F8C841016821F4704141F44A
:100600008041016070BD000000C00F40000000107C
:1006100000093D0000127A0000366E01001BB70091
:10062000DE87280470B502460024012300E0641C24
:1006300003FA04F132EA0100F9D1104600F00AFC95
:100640004FF6FF752946B148DFF8C4C200DF2846DF
:1006500000F039FB4FF4FC6000F032FB6042E02117
:1006600001EB00108122602100F06FFBA748DFF84A
:10067000A4C200DF70BD70B502460024012300E073
:10068000641C03FA04F132EA0100F9D1104600F0CB
:10069000FBFB4FF6FF7529469C48DFF874C200DF6C
:1006A000284600F010FB4FF4FC6000F009FB6042AC
:1006B000E02101EB00108022602100F046FB93480E
:1006C000DFF850C200DF70BD70B50646924C4FF4A3
:1006D00080752846DFF844C2216900DF3220DFF848
:1006E00040C200DF2846DFF834C2216900DF322033
:1006F000DFF82CC200DF31460120DFF820C200DF26
:100700003220DFF81CC200DF70BD834C4FF6FF754E
:10071000012229461046DFF80CC200DF0120FFF756
:1007200081FF6068FFF7D0FF0120FFF7A4FFEFE72C
:10073000794C4FF6FF75012229461046DFF8E4C1D7
:1007400000DF0220FFF76EFFA068FFF7BDFF022069
:10075000FFF791FFEFE7704C4FF6FF750122294636
:100760001046DFF8C0C100DF0420FFF75BFFE06840
:10077000FFF7AAFF0420FFF77EFFEFE7664C4FF676
:10078000FF75012229461046DFF898C100DF0820D6
:10079000FFF748FF2068FFF797FF0820FFF76BFF80
:1007A000EFE74FF6FF744FF480750122214628468B
:1007B000DFF870C100DF8020FFF734FF0820DFF88A
:1007C00060C100DF8020FFF756FFEEE74FF6FF74B1
:1007D0004FF478454FF4C87621464C48DFF830C1D5
:1007E00000DF284600F06FFA204600F069FA4EA1BB
:1007F000002000F0B3FA52A1182000F0AFFA56A181
:10080000302000F0ABFA4148DFF808C100DF304685
:10081000DFF80CC100DF21463C48DFF8F4C000DF00
:10082000284600F050FA1F2000F04AFA3EA10020AE
:1008300000F094FA42A1182000F090FA46A130206E
:1008400000F08CFA3148DFF8CCC000DF3046DFF82A
:10085000D0C000DFC0E72D48DFF814C100DF00235F
:100860001A461946AFF25D10DFF808C100DF2A4CC6
:10087000206000231A461946AFF24B10DFF8F4C08F
:1008800000DF606000231A461946AFF23510DFF82A
:10089000E4C000DFA06000231A461946AFF223101F
:1008A000DFF8D0C000DFE06000231A461946AFF23F
:1008B0000D10DFF8C0C000DF206100231A46194682
:1008C000AFF2F700DFF8ACC000DF60610120DFF8B5
:1008D0004CC0216800DF0020DFF89CC000DF10B5AD
:1008E000FFF73BFE00F0ACFA00F065F84FF6FF7042
:1008F00000F0ECF9FFF70AFD00221146AFF2A90063
:10090000DFF878C000DF002010BD0000B82A00101A
:10091000BD150000D91400000C0000107112000079
:10092000F3020000D1120000202020436F72746592
:10093000784D335F4E5850202020202000000000CA
:100940002020202052545820426C696E6B79202060
:1009500020202020000000002020207777772E68BC
:1009600075696E732E636F6D2020202000000000DB
:10097000C9140000191A0000AD1A00004118000047
:100980008004401E411CFCD1704770B50546F74CF1
:10099000606920F040006061601540EA152000F0B9
:1009A00019FAE8B240F4807000F014FA606940F07F
:1009B0004000606170BD10B5ED48416A21F04071A2
:1009C0004162EA4C1834A16E41F08051A166416A3F
:1009D00021F040614162A16E41F00051A166E16FDA
:1009E00041F00051E167E3490A6842F480620A601D
:1009F000D1F8E42042F40012C1F8E42054F8181CA5
:100A000041F0400144F8181C40212160016821F4A4
:100A10007C210160016841F428210160D648082149
:100A2000016006210161022141600520FFF7A8FF56
:100A3000CF2000F0D9F9002000F0E3F9832000F086
:100A4000E0F9302000F0DDF9ED2000F0CDF9642070
:100A500000F0D7F9032000F0D4F9122000F0D1F90A
:100A6000812000F0CEF9E82000F0BEF9852000F0EA
:100A7000C8F9012000F0C5F9792000F0C2F9CB20B7
:100A800000F0B2F9392000F0BCF92C2000F0B9F9DF
:100A9000002000F0B6F9342000F0B3F9022000F095
:100AA000B0F9F72000F0A0F9202000F0AAF9EA2020
:100AB00000F09AF9002000F0A4F9002000F0A1F95C
:100AC000C02000F091F91D2000F09BF9C12000F03A
:100AD0008BF9112000F095F9C52000F085F933203D
:100AE00000F08FF9342000F08CF9C72000F07CF979
:100AF000BE2000F086F9F62000F076F9012000F023
:100B000080F9102000F07DF9002000F07AF93A20F9
:100B100000F06AF9552000F074F9362000F064F90D
:100B2000B02000F06EF9B12000F05EF9002000F076
:100B300068F91B2000F065F9B62000F055F90A208D
:100B400000F05FF9A22000F05CF9F22000F04CF90F
:100B5000002000F056F9262000F046F9012000F0B0
:100B600050F9E02000F040F90F2000F04AF923206E
:100B700000F047F91F2000F044F9092000F041F986
:100B80000F2000F03EF9082000F03BF94B2000F068
:100B900038F9F22000F035F9382000F032F9092058
:100BA00000F02FF9132000F02CF9032000F029F9B0
:100BB000122000F026F9072000F023F9042000F0AD
:100BC00020F9E12000F010F9002000F01AF91D20B2
:100BD00000F017F9202000F014F9022000F011F9BC
:100BE000112000F00EF9072000F00BF9342000F07E
:100BF00008F9812000F005F9462000F002F90620EE
:100C000000F0FFF80E2000F0FCF80C2000F0F9F8DE
:100C1000322000F0F6F8382000F0F3F80F2000F052
:100C2000F0F8112000F0E0F80C20FFF7A9FE2920D1
:100C300000F0DAF8E06F40F08050E06710BD70B56A
:100C400004460D462A2000F0CFF8C4F3072000F038
:100C5000D8F8E0B200F0D5F82C44641EC4F30720A5
:100C600000F0CFF8E0B2BDE8704000F0CAB870B54F
:100C700004460D462B2000F0B7F8C4F3072000F01F
:100C8000C0F8E0B200F0BDF82C44641EC4F30720A5
:100C900000F0B7F8E0B2BDE8704000F0B2B810B5AF
:100CA0000C460121FFF7CBFF01212046FFF7DFFFB4
:100CB0002C2000F099F831480088BDE8104064E627
:100CC0002E49088070472D494880704770B5064608
:100CD0004FF4A0710020FFF7B2FFF0210020FFF7D2
:100CE000C6FF2C2000F080F800244FF496353046E3
:100CF000FFF74BFE641CAC42F9D370BD2DE9F04107
:100D00000C46904600251021FFF799FF1821204638
:100D1000FFF7ADFF2C2000F067F8184F01260024E4
:100D200038F8150006FA04F1084203D17888FFF775
:100D30002CFE02E03888FFF728FE641C102CEFDB45
:100D40006D1C182DEBD3BDE8F081203AD2B20B4BCD
:100D500002EB42021B1D03EB0212CFE72DE9F0412B
:100D600007460D460024002611E0000000C00920BF
:100D700000C00240C4C00F40000003402400001027
:100D800039463046FFF7E1FF10366D1C641C2A78A7
:100D9000002AD8D0142CF3D3D5E721A1DEE72DE922
:100DA000F0410F46069C11461D4601FB05F6FFF774
:100DB00046FF29463846FFF75AFF2C2000F014F86A
:100DC000002504E034F8020BFFF7DFFD6D1CB5428F
:100DD000F8D3B8E7C0F3080117488160C168C906B5
:100DE000FCD48068C0B2704710B5144C616921F022
:100DF00040016161FFF7EEFF606940F04000606113
:100E000010BD10B50D4C616921F04001616140F4E5
:100E10008070FFF7DFFF606940F04000606110BD47
:100E200020202020202020202020202020202020C2
:100E300020202020000000000000034000C0092006
:100E40003248016A41F030410162016C41F07C019D
:100E50000164704770B500212C4A2D4B012505FA1D
:100E600001F404420CD0032905DA546B53F82160D5
:100E70003443546304E0546D53F8216034435465A3
:100E8000491C0829EBDB70BD70B500211F4A204BBF
:100E9000012505FA01F404420CD0032905DA546B4C
:100EA00053F82160B443546304E0546D53F8216057
:100EB000B4435465491C0829EBDB70BD70B50021B3
:100EC000124A134B012404FA01F505420DD00329FF
:100ED00005DA556B53F821603543556312E0556DC3
:100EE00053F82160354355650CE0032905DA556B4D
:100EF00053F82160B543556304E0556D53F8216004
:100F0000B5435565491C0829DDDB70BD00C00920CB
:100F1000481C000053EA020C00F069802DE9F04BF8
:100F20004FF00006002B1FBFB3FA83F503FA05F458
:100F300024FA05F65E4012BF1643B2FA82F502FAB1
:100F400005F4C5F120051EBF22FA05FC44EA0C0495
:100F5000203556EA044C4FEA144418BF641C4FF085
:100F600000084FF00009904271EB030C39D30029BF
:100F700019BFB1FA81F701FA07F6B0FA80F700FA63
:100F800007F6C7F120071EBF20FA07FC46EA0C0649
:100F90002037B6FBF4FCA7EB0507103F07F01F0B4B
:100FA000CBF120060CFA0BFB2CFA06F644BFB34635
:100FB0000026202FA4BF5E464FF0000B5BEA060C14
:100FC00008BF4FF0010B19EB0B09ABFB027C48EBA0
:100FD0000608C01B06FB02CC0BFB03CC71EB0C011B
:100FE000C1E70B46024641464846BDE8F08B13B5C3
:100FF0004FF000004FF00001AFF30080BDE81C404F
:10100000704710B5002A06DA22F00042D21D22F005
:101010000703102203E0D21C22F003030C2213B1B9
:101020009C188C4201D9012010BD02440144836008
:10103000C0E90021C91AD018884202D810600246BF
:10104000F9E70020106010BD08480068C0010BD50A
:1010500007480068C00707D00548803800680028A6
:1010600002DA04490120087070470000FCED00E03E
:10107000800E00E0341500104FF06042D36F002B5B
:10108000FCD0436BD367D36F002BFCD0C07840EA11
:101090000120A2F87C0070474FF06041CA6F002A1F
:1010A000FCD081F87C007047074801684FF0E020D1
:1010B000416100218161072101610448016841F01B
:1010C0007F41016040177047301C000020ED00E0B8
:1010D00050E8001F31B10B6840E80032002AF7D118
:1010E00008467047BFF32F8FFAE7000070B50D4632
:1010F000002812D04FF6FF71084C884204D22268B3
:101100000146104600F0CCFA20684570044800F013
:101110000DF9BDE8704000F07FBB70BD28150010D0
:10112000002B00100F4810B50D4942680E480B689F
:101130000068934204D00A60CB88421E1A448A8019
:101140008A8880B282420AD100200860054800F0F7
:10115000EDF80146BDE81040024800F0C5BA10BDE8
:1011600040150010002B00103015001070B51A4DFE
:10117000E86800282ED0A88A401EA882002623E016
:10118000A06838B161684160606810B1A168816091
:101190006660A66010482146183800F0A5FAA08ABB
:1011A000A8826078042804D10C49E08A09880844A0
:1011B000A0820120607084F82500E068E860E068A3
:1011C00008B10561E6602661A88A002802D1EC68B2
:1011D000002CD5D170BD0000182B00103015001068
:1011E00070B504000FD00D4DA178012628688278D3
:1011F00091420CD900F094FA286846702046BDE868
:10120000704000F009BB064800F090F8F7E7667000
:101210002146BDE87040024800F066BA281500106B
:10122000002B001010B50446008B08432083627821
:10123000618B062A16D0052A17D1084215D001EA7B
:101240000002628388432083204600F08DFA01204B
:101250006070022084F825002146BDE81040034854
:1012600000F042BA31EA0002ECD010BD002B0010B1
:10127000024670B5154800EB810050F8044C002C74
:1012800022D0208B104320836178658B062918D0EB
:10129000052919D1284217D005EA00016183A84326
:1012A0002083204600F060FA208BA8432083012091
:1012B0006070022084F825002046BDE87040FFF7EA
:1012C0008FBF35EA0001EAD070BD00007C27001016
:1012D00070B503460C480D460468208B42B133EAD2
:1012E000000101D0062109E098432083022070BD4F
:1012F00010EA030101D06183F6E7052163832846E4
:10130000FFF7F4FE012070BD28150010814202D3C2
:1013100042688A4201D80120704750E8002F0A60D5
:1013200040E80012002AF8D10020704701464068CA
:1013300042684A600B780022022B05D0012B03D0B3
:10134000032B01D04260704743680BB19960426043
:101350008260704770B50446002015462070012257
:101360006270A17084F824106060A060E060206169
:101370002062A082E0822083608384F8250084F8C4
:101380002600208D18B90548FFF7A2FE20632946E4
:101390002046BDE8704000F00FB80000E8160010CD
:1013A00003480021016003490988C180704700009B
:1013B000401500102C1C000010B5028D920803D1BE
:1013C0000F4A1288C2F38D02036B03EB82025307AC
:1013D00000D5121F403A4FF08073C2E90E1300236C
:1013E0004FEA030442F823405B1C0E2BFAD3C36977
:1013F0001362C2624163006B0249016010BD0000CC
:10140000281C0000A52E5AE22DE9F0410F460446A3
:101410004168002004F10C0621B1617802291AD03C
:10142000A189A9B3A189E289914246D2218904EB1D
:1014300081010F61D6E85F1F491CC6E8521F002AD0
:10144000F8D12189491C89B22181E289914200D1D8
:101450002081BDE8F081074660702046FFF766FFF7
:1014600080F825702189054604EB8101C069086177
:10147000D6E85F0F401CC6E8510F0029F8D120893B
:10148000401C80B22081E18988420BD1278109E08C
:10149000FFE72046FFF74AFF0546C06904210760C1
:1014A00085F8251001206870284600F05DF929466E
:1014B000BDE8F041034800F017B9BDE8F041032052
:1014C000FEF796BE002B0010032101700021418021
:1014D00041608160C16070472DE9F0470446408853
:1014E00020B1344DA1682A68914202D0FF20BDE8A6
:1014F000F087401E0004000C608059D12968086AFA
:10150000A04209D1E068086208E0C268A24202D1A4
:10151000E268C26002E010460028F6D191F824008B
:101520000A6A06E053681BB19B78834200D91846CB
:10153000D268002AF6D18870DFF87C806168914615
:10154000012741B32046FFF7F1FE0646052086F845
:101550002500304600F008F96780A660306AE06038
:1015600034622968D8F804008A788078824201D3EE
:1015700030460AE0104800F0B7F831460E4800F057
:10158000B3F828684770777010E0FFF729FE2968E4
:1015900081F825900CE0D8F804108A7829688242F6
:1015A00006D9054800F0A0F8286847700020ECE74D
:1015B00000209CE728150010002B001070B5184D76
:1015C0000E4604464188286839B1A168814209D194
:1015D0006088401C6080002070BDA060016AE160EE
:1015E0000462F5E776B18A788078824203D2887007
:1015F000A06800F09FF8606830B12046296800F0CC
:1016000073F808E0012070BD286860602968002038
:1016100048602868846009213046FFF767FDF1E7DC
:101620002815001070B51B48012102685170006830
:1016300000F076F8184D6C7817E000BF05EBC40198
:1016400048680278E2B1012A1FD000F0B9F8E878C2
:10165000641C844200D100240F48801CD0E84F1F36
:10166000491EC0E8421F002AF8D1A8780028E5D119
:101670006C700A48FFF75AFEBDE8704000F0CCB825
:10168000098989B2FFF7CEFDE1E78968FFF7BCFE63
:10169000DDE7000028150010F8260010002B0010D0
:1016A000104A10B5D368ABB113469B8A03E08CB1E6
:1016B0002246A48A2344D4688B42F8D3C460D06005
:1016C0000261C46804B12061591A8182908A401A6B
:1016D000908210BD0024C460D060C91A026191825A
:1016E000848210BD182B001030B502780023022A26
:1016F00003D0012A01D0032A00D101238C7800E015
:101700001046426812B19578A542F9D24A6041600C
:101710001BB102B19160886030BD0020FBE7000082
:1017200003494A68426000228260486070470000B6
:10173000002B001010B5836804462BB9607801288F
:101740000ED1084B03E09B6818780028FBD0204698
:1017500000F01EF82146BDE810401846FFF7C4BF50
:1017600010BD0000002B001010B5016900290ED03B
:10177000C268CA60C36800223BB18B8A848A234452
:101780008B82C3681961C26000E08A82026110BD69
:10179000816839B142684A604168002901D0806897
:1017A00088607047054906E04A68824202D1406875
:1017B0004860704711460029F6D17047002B001091
:1017C00010B5416879B1FFF7B1FD0446FFF7CCFFD2
:1017D00001206070032084F825002146BDE81040F8
:1017E0000348FFF781BF4188491C418010BD0000BC
:1017F000002B001006480068D0E90B10814203D38B
:1018000000680449884202D00120FEF7F1BC70470D
:1018100028150010A52E5AE207490222486042709E
:10182000064A1278002A05D006C98A4202D0C0783A
:10183000FFF732BC70470000281500103415001067
:101840002DE9F047164688468146FFF7FDFB00204C
:1018500004463E4A3E4902E042F82040401C0B88C4
:101860009842F9D33B48382201883B48FFF7C9FB2F
:101870003A48008880B240F000423948016839484F
:10188000FFF7BFFB38480822018838480068FFF797
:10189000B8FB374FFF25374AFD703C85002138469D
:1018A000FFF758FD3448042101704460334801704B
:1018B000C46004618482F86A2030FEF721FD30485C
:1018C00031490760022078702E480470447009780E
:1018D000C170FFF765FD2D48016841F47F0101608B
:1018E0000068290601EA00202849C0431439B0FAEB
:1018F00080F00968C0F10800C1F30221814200DBD9
:10190000481C2249091F0B686FF08072824063F304
:1019100017020A60FFF7C8FB1D49002808600CDBAE
:101920001C49455400F01F020121914040114FF025
:10193000E02202EB8000C0F80011324641464846E2
:10194000BDE8F047002300F067B800007C270010D6
:10195000F80200003C1C000050150010281C00007C
:10196000401C0000E8160010441C00000400001099
:10197000C82A0010ED010000002B0010182B0010E9
:1019800028150010F8260010FB02000020ED00E0F2
:101990003C15001000E400E00C4810B5026801217D
:1019A00051700068FFF7BCFEFFF7BCFB08480168F8
:1019B000491C0160FFF7DAFB00F00EF80548FFF75D
:1019C000B5FCBDE81040FFF727BF00002815001048
:1019D00030150010002B001070B50D4C2068002849
:1019E00015D0A0880B4E401EA0800AE0E888FEF7C4
:1019F000FEFBA888A0802868206029463068FFF791
:101A000085FCA088002802D12568002DEED170BD8C
:101A100048150010040000102DE9F0411E4617463D
:101A200080460C4611F0FF0F00D14C1C1A48FFF7FE
:101A30004FFB05002DD0C4F30F202F632885E1B2A2
:101A400042462846EE61FFF785FC012413481449FD
:101A500006E000BF00EB840252F8042C22B1641CA3
:101A60000A889442F6D9002400EB8400E6B240F8DC
:101A7000045C0C48EE70007818B101212846FFF78D
:101A8000FBFA2846FFF7ACFB0748006880F82560A2
:101A90002046BDE8F0810000501500107C270010A2
:101AA000F802000034150010281500102DE9F05F31
:101AB000544DDFF848B1DFF848A129684FF000081D
:101AC0004FF00509012610B1CA7882423FD147463E
:101AD00081F80180FEF717FC2968C862FFF78AFECB
:101AE0002868B046046A18E06068A8B12046FFF78D
:101AF0001DFC064680F82590FFF736FE86F801802B
:101B000031464148FFF7F0FDA4F80280A660316A33
:101B1000E1603462E46800E0E468002CE4D1286805
:101B2000C2780AEB820141F8047C016B3748FFF769
:101B3000EDFB286807639BF8001011B10021FFF747
:101B40009BFA33482968FFF7E1FB2F6051E03149E8
:101B5000098888420ED80AEB800757F8045C4DB11B
:101B60002846FFF715FE2846FFF7FEFDCA46B14698
:101B70002C6A1BE0FF20BDE8F09F6068A8B12046FA
:101B8000FFF7D4FB064680F825A0FFF7EDFD86F8A9
:101B9000019031461C48FFF7A7FDA4F80290A6600B
:101BA000316AE1603462E46800E0E468002CE4D16A
:101BB00047F8048C44461548296BFFF7A7FB2C63B4
:101BC0009BF8000018B100212846FFF755FA294676
:101BD0000F48FFF79BFB0C48406882780948016872
:101BE0008B789A4208D981F8019001680648FFF77E
:101BF0007BFD0020FFF7F4FA0020BCE7341500104D
:101C00007C27001028150010002B0010E81600108B
:101C100050150010F802000002480068002800D0AB
:101C2000C07870472815001000020001050001006F
:101C3000BF270900102700000000000094010000E9
:101C40001010000000000000000000100000002044
:101C500000000080040000000800000010000000E8
:101C60002000000040000000490004008C1C00001F
:101C7000000000105015000008010000242400009E
:101C800050150010401800006C01000000061F00F5
:101C9000A24A04000100042FFFFF00010316800187
:101CA00002611EE16692CC02012A6A23600C0220C6
:101CB0000F30063006FE1FFE1F3006380718030AD5
:101CC0002007180318038C01023172201700E0036B
:101CD000F80F9C0E8C1C8C188C009800F801E00703
:101CE000800E800E100B189C18B80CF00FE00380CB
:101CF00026A15A10090E181B0C110C110602101106
:101D00000311039B018E01C038C06C6044604430F5
:101D10000264071844186C0C38241005E001F00325
:101D20007A10140618063003F001F000F8009C3118
:101D30000E33061E061C02E0063FFC73F021B8922B
:101D40000C020121E7100B0200038001C000C0005B
:101D50006002D230022114211C155E12032A1516CE
:101D60003220123570120302D20602111425A2216C
:101D70004ED6208821481008D806F807E00130D256
:101D8000052AEAC405FC3FFC3FE8092C301200029A
:101D90000A1B808A000633E007E0070001253AF5B8
:101DA0007F750C155C351045624564D17AE00A03F5
:101DB000F007380E180C0C1802D409180C380EF065
:101DC00007E003B0214C0C071901F00198018808C5
:101DD00003A16043F80F5E220002219C35F025EC40
:101DE000D0071800FC1FFC1F90100701F807180E01
:101DF0000C0121C81805C003C00751113C419202D3
:101E000010F8904C0B0C000E000F000F800DC0302E
:101E100003116B270C0CB209148513F80F9031894C
:101E20003009EC03FC071C0E001C98115E00051025
:101E30001C0C180E602009C007F00F381C1818324F
:101E40005409CC03EC0F3C0E1C1C2006121C203144
:101E5000D24582357C16C07A3AE0C85A70DE051445
:101E600080215384073806F007F0078CE005380C12
:101E7000F80F604130521C2430091C1C381EF81B1E
:101E8000E019D1130C1CC00B1BF0018A01211401B5
:101E90001F30091ACE1C0510001C80720416F8DCD5
:101EA0001AF85C17800F600E18108205C3F81F081F
:101EB0000D1E1405180708003800F00114121F61E8
:101EC000161F9C13013814091770796E6D2603FDD7
:101ED0002E033D7C03400C18180420C229224A110D
:101EE000440902EC0C221113E20C024004201818E1
:101EF000980315D4200403C00602396E2218022C60
:101F000007F83FF83F1C70AF052119D9106C050385
:101F1000FC0F0C5E0310040CFC070E1A18A54102FE
:101F20001E180003FA0770BC0A1F38381C300C70EA
:101F30000660DD04E008600C701C30F01F903C0867
:101F4000FE03FE0F060E06A105B1022DB305E8053E
:101F50000EFE0FFEA01DCC048DA20529AEADB0056E
:101F60003D3803C5A211DC4DBB032D27038005F8C6
:101F70001FF81F0E4DD303DDCA043C0C0FF83F3C85
:101F8000780E6006E007C0810411A11DC50315335A
:101F9000DC090EC03CF0F83FE00FBF03A230023175
:101FA0009EB1120F260C3080070D15A005021406F5
:101FB000022531DC063807F003E0B004353A10148E
:101FC0000C060606038601C60066007600DE008E5B
:101FD00001060312360C64DD4105021B1802253090
:101FE000CD210320050EE01EF0024336D802236601
:101FF000CC0252C601E40586C386C32010041C30FF
:102000003C02126C0212CC0210058C310C3302120D
:102010003602123C02E638201C05E007F81F99043E
:10202000193EA303C002F80806600E701C38F84081
:102030001BFC0F02CA38920E190CC407916082E093
:102040005E140907E006630E3F1C3CE0CEF79106E4
:10205000198258041F06389C1E38C00876074C4960
:10206000B20E106030065DDE041D9B051BF80330C8
:10207000331E00401C050E301C1C1005ED0003082B
:10208000042A7FFE7F10E95EA97E071018182043FE
:102090000360BC6D14072D16072D940914057007F5
:1020A0006003631DE005E13023C3610283663302F0
:1020B000236C1B02CC092C1A3C1E380E380E31053D
:1020C0001C090FE00C70183030183F043C040EC09F
:1020D000075E04140503E00670F71D8107D0063083
:1020E0000E6007E0602D79044C08301C3838183039
:1020F0000C65030D1C80075C05FC7FFC7F6D07DD14
:102100007C072D2708253EED10082FE003AE0601C1
:102110001E0221282DA60A6DA6094DA8091D6409D5
:102120006D0E0B7E03A009F1600221000261601DAB
:1021300082071D4407256C3F6003D7042919013924
:1021400001CFFFFFF60B0D2DAE0A9D4A081805F0D2
:1021500003F807AA2C070C000FF00FF8B1081F0CAA
:102160001C5C080F16F01820041ED8A80B1E383768
:102170000881012DE0070F17D803DA091D9A096FAE
:10218000300E39092DA3081E309009EEC0000971E8
:102190001F2805C01BF01F368160000719301CF096
:1021A0001FC01B601E0F83066E18D4051952EC0564
:1021B0001CF00FC0F00644040FC00FDA2D9C085528
:1021C000E4B1020D17D40A1E0DFA093DCA096101D6
:1021D0001D600924050FE00D002A6E06AA0895204F
:1021E0004F07F86A09D1010D16F00A0215C0020165
:1021F0002E3041DEEC04F80078BE0C1C050C0C06F9
:102200000C6A0D100DCC006C00FC009C018C030CC2
:1022100003120E100C560C011C020D169009E00959
:102220007C3CFF7EC7E383C1020D16EA0B062398B0
:10223000200510E099101D0E0E0A17C0700916A097
:102240000D16EA070917700D151B081EB06E07FE64
:1022500070E20D0E1830140D1E037A0E1D1A0B1DA0
:10226000F2093D060C0D15900C1D020F0919A00F67
:10227000170780EA0D09106A1238C01D4C0B0D15A6
:10228000DB0A4DFE053E18920F1DB7060E14030023
:10229000068DF80F3008C141C141C3616301323678
:1022A00001321C010D16F00F3E1CF70952605A1D39
:1022B0005E061D75061E38E10B0117C01D36061D92
:1022C00038062E1828102FE00C940A2D3E064DF0EB
:1022D0000D1DA20D1D700C0D159A0C0D1B800D8D82
:1022E000300B8D320E2DE205BA40D63D900F0D25F4
:1022F0009009CD22119E6024069DC60FB3030048AD
:10230000FEC0A80E5D740500075110F81F080F00ED
:1023100001600DC003300C081004200420024002AC
:10232000210E0C05120810300C34032D3E052FF839
:102330001F1A102D82084102210E0F18F81F640386
:102340001EE04C0EA9700F1CF00FF60F21302D9ED1
:10235000056102011E30ADBC103AC04021660D106F
:10236000840A011430A16E0D10A80D1D24063D42F3
:10237000041DE30C0E20030411A1B20122307D6C78
:10238000121D581010048C018602128C0A00051EC2
:10239000F001E001301006F801FC01FE0212FC0A17
:1023A000011E30100B8007800F8019803180610280
:1023B00012310A00041F0F80073010061F803F8073
:1023C0007F02123F0A0111301805C001200233B00C
:1023D0000501300608012116E1024DCE082D6209E3
:1023E0001D4211A00407D80D027DF60391020112CF
:1023F00060230410593240164310041211026C0479
:102400002004402E09C1604C07CC19C631C261427C
:10241000091F700680084D3A101D69040D2A4603F5
:0424200000000000B8
:04000005000000CD2A
:00000001FF
